:100000000C942A001895000018950000189500001F
:10001000189500001895000018950000189500002C
:10002000189500001895000018950000189500001C
:10003000189500001895000018950000189500000C
:1000400018950000189500001895000018950000FC
:10005000189500008FE58DBFC8E3E0E24E2E84E0E6
:100060008EBFD4E0F4E05F2EA89584B7082E877F7A
:1000700084BF88E1992781BD91BDEEEFF3E0A0E652
:10008000B0E088278D933197E9F7662480E08ABB3A
:1000900080E084BB8FEF87BB80E88093610083E0C2
:1000A00080936300A6E6B0E089B38C93009166006C
:1000B000023011F00C94610081E0809365000C9493
:1000C0009500043011F00C946A0082E08093650082
:1000D0000C949500083011F00C94730083E0809329
:1000E00065000C949500003111F00C947C0084E0C4
:1000F000809365000C949500003211F00C948500FB
:1001000085E0809365000C949500003411F00C9408
:100110008E0086E0809365000C949500003811F005
:100120000C94950087E080936500A7E6B0E083B368
:100130008C9300916700023011F00C94AC00009198
:100140006300043110F00C94AA00A3E6B0E08C9197
:100150008F5F8C930C94BE00013011F00C94BE00A4
:1001600000916300013018F011F00C94B9000C9468
:10017000BE00809163008150809363000091650010
:10018000013011F00C94C6000E94FA000091650045
:10019000023011F00C94CE000E941D010091650008
:1001A000033011F00C94D6000E942C0100916500E0
:1001B000043011F00C94DE000E943C0100916500B7
:1001C000053011F00C94E6000E944C01009165008E
:1001D000063011F00C94EE000E9458010091650069
:1001E000073011F00C94F6000E94AD010C945200FF
:1001F000F894FFCF809165008093620081E880933E
:1002000060000E946B0282E4809360000E946B0297
:1002100084E2809360000E946B0288E1809360001A
:100220000E946B0284E2809360000E946B0282E471
:10023000809360000E946B02089580916500809316
:1002400062008AEA809360000E946B0285E58093D9
:1002500060000E946B0208958091650080936200A7
:1002600091E0A1E6B0E00E942303809161008093B9
:1002700060000E946B020895809165008093620087
:1002800091E0A1E6B0E00E941903809161008093A3
:1002900060000E946B020895809165008093620067
:1002A000A0E6B0E08C9180958C930E946B0208953B
:1002B000809165008093620081E0809360000E94DD
:1002C0006B0283E0809360000E946B0287E0809362
:1002D00060000E946B028FE0809360000E946B02BE
:1002E0008FE1809360000E946B028FE38093600037
:1002F0000E946B028FE7809360000E946B028FEF79
:10030000809360000E946B028FE7809360000E94E0
:100310006B028FE3809360000E946B028FE18093F9
:1003200060000E946B028FE0809360000E946B026D
:1003300087E0809360000E946B0283E080936000FE
:100340000E946B0281E0809360000E946B0280E05B
:10035000809360000E946B020895809165008093F5
:10036000620081E8809360000E946B0282E48093C7
:1003700060000E946B0284E2809360000E946B0226
:1003800088E1809360000E946B0284E280936000A9
:100390000E946B0282E4809360000E946B028FEFE8
:1003A000809360000E946B0280E0809360000E9456
:1003B0006B028FEF809360000E946B0280E080935D
:1003C00060000E946B028AEA809360000E946B02C8
:1003D00085E5809360000E946B028AEA809360004A
:1003E0000E946B0285E5809360000E946B028FEF94
:1003F000809360000E946B0280E0809360000E9406
:100400006B028FEF809360000E946B0281E080930B
:1004100060000E946B0283E0809360000E946B0288
:1004200087E0809360000E946B028FE08093600001
:100430000E946B028FE1809360000E946B028FE349
:10044000809360000E946B028FE7809360000E949F
:100450006B028FEF809360000E946B028FE78093A6
:1004600060000E946B028FE3809360000E946B0229
:100470008FE1809360000E946B028FE080936000A8
:100480000E946B0287E0809360000E946B0283E011
:10049000809360000E946B0281E0809360000E9464
:1004A0006B0280E0809360000E946B028FEF80936C
:1004B00060000E946B0280E0809360000E946B02EB
:1004C0008FEF809360000E946B0280E08093600059
:1004D0000E946B020895A0E6B0E08C9188BB81E099
:1004E000809364004091630000916400041718F049
:1004F00011F00C94890284E690E00E940A030E94A5
:100500008A02A4E6B0E08C918F5F8C9310F40C9477
:1005100072020895A6E6B0E089B38C93009166005C
:10052000023011F00C94990281E0809362000C94E7
:10053000CD02043011F00C94A20282E0809362009C
:100540000C94CD02083011F00C94AB0283E0809340
:1005500062000C94CD02003111F00C94B40284E0DE
:10056000809362000C94CD02003211F00C94BD0215
:1005700085E0809362000C94CD02003411F00C945D
:10058000C60286E0809362000C94CD02003811F020
:100590000C94CD0287E080936200A7E6B0E083B3BD
:1005A0008C9300916700023011F00C94E4020091EA
:1005B0006300043110F00C94E202A3E6B0E08C91E9
:1005C0008F5F8C930C94F602013011F00C94F602BC
:1005D00000916300013018F011F00C94F1020C94BA
:1005E000F602809163008150809363004091650022
:1005F00000916200041711F40C9400030C94520053
:1006000008953197F1F70895689462F80895E89491
:1006100062F80895EF93FF93EE27E82BE92B31F072
:10062000EAEFF0E03197F1F70197D1F7FF91EF9101
:100630000895903039F08C91880F08F481609A9574
:10064000D9F78C930895903039F08C91869508F401
:0A06500080689A95D9F78C930895FD
:00000001FF
